{
  "contractName": "AvatarArtStaking",
  "abi": [
    {
      "inputs": [
        {
          "internalType": "address",
          "name": "bnuTokenAddress",
          "type": "address"
        },
        {
          "internalType": "uint256",
          "name": "apr",
          "type": "uint256"
        }
      ],
      "stateMutability": "nonpayable",
      "type": "constructor"
    },
    {
      "anonymous": false,
      "inputs": [
        {
          "indexed": false,
          "internalType": "address",
          "name": "oldOwner",
          "type": "address"
        },
        {
          "indexed": false,
          "internalType": "address",
          "name": "newOwner",
          "type": "address"
        }
      ],
      "name": "OwnerChanged",
      "type": "event"
    },
    {
      "anonymous": false,
      "inputs": [
        {
          "indexed": false,
          "internalType": "address",
          "name": "account",
          "type": "address"
        },
        {
          "indexed": false,
          "internalType": "uint256",
          "name": "amount",
          "type": "uint256"
        }
      ],
      "name": "Staked",
      "type": "event"
    },
    {
      "anonymous": false,
      "inputs": [
        {
          "indexed": false,
          "internalType": "uint256",
          "name": "time",
          "type": "uint256"
        }
      ],
      "name": "Stopped",
      "type": "event"
    },
    {
      "anonymous": false,
      "inputs": [
        {
          "indexed": false,
          "internalType": "address",
          "name": "account",
          "type": "address"
        },
        {
          "indexed": false,
          "internalType": "uint256",
          "name": "amount",
          "type": "uint256"
        }
      ],
      "name": "Withdrawn",
      "type": "event"
    },
    {
      "inputs": [],
      "name": "APR_MULTIPLIER",
      "outputs": [
        {
          "internalType": "uint256",
          "name": "",
          "type": "uint256"
        }
      ],
      "stateMutability": "view",
      "type": "function"
    },
    {
      "inputs": [],
      "name": "ONE_DAY",
      "outputs": [
        {
          "internalType": "uint256",
          "name": "",
          "type": "uint256"
        }
      ],
      "stateMutability": "view",
      "type": "function"
    },
    {
      "inputs": [],
      "name": "ONE_YEAR",
      "outputs": [
        {
          "internalType": "uint256",
          "name": "",
          "type": "uint256"
        }
      ],
      "stateMutability": "view",
      "type": "function"
    },
    {
      "inputs": [],
      "name": "approveToBeOwner",
      "outputs": [],
      "stateMutability": "nonpayable",
      "type": "function"
    },
    {
      "inputs": [],
      "name": "getOwner",
      "outputs": [
        {
          "internalType": "address",
          "name": "",
          "type": "address"
        }
      ],
      "stateMutability": "view",
      "type": "function"
    },
    {
      "inputs": [
        {
          "internalType": "address",
          "name": "newOwner",
          "type": "address"
        }
      ],
      "name": "requestChangeOwner",
      "outputs": [],
      "stateMutability": "nonpayable",
      "type": "function"
    },
    {
      "inputs": [],
      "name": "toggleRunningStatus",
      "outputs": [],
      "stateMutability": "nonpayable",
      "type": "function"
    },
    {
      "inputs": [
        {
          "internalType": "uint256",
          "name": "startTime",
          "type": "uint256"
        },
        {
          "internalType": "uint256",
          "name": "endTime",
          "type": "uint256"
        }
      ],
      "name": "createNftStage",
      "outputs": [],
      "stateMutability": "nonpayable",
      "type": "function"
    },
    {
      "inputs": [],
      "name": "getApr",
      "outputs": [
        {
          "internalType": "uint256",
          "name": "",
          "type": "uint256"
        }
      ],
      "stateMutability": "view",
      "type": "function"
    },
    {
      "inputs": [],
      "name": "getBnuTokenAddress",
      "outputs": [
        {
          "internalType": "address",
          "name": "",
          "type": "address"
        }
      ],
      "stateMutability": "view",
      "type": "function"
    },
    {
      "inputs": [],
      "name": "getNftStages",
      "outputs": [
        {
          "components": [
            {
              "internalType": "uint256",
              "name": "startTime",
              "type": "uint256"
            },
            {
              "internalType": "uint256",
              "name": "endTime",
              "type": "uint256"
            },
            {
              "internalType": "bool",
              "name": "isActive",
              "type": "bool"
            },
            {
              "internalType": "bool",
              "name": "isAllowWithdrawal",
              "type": "bool"
            }
          ],
          "internalType": "struct AvatarArtStaking.NftStage[]",
          "name": "",
          "type": "tuple[]"
        }
      ],
      "stateMutability": "view",
      "type": "function"
    },
    {
      "inputs": [],
      "name": "getStopTime",
      "outputs": [
        {
          "internalType": "uint256",
          "name": "",
          "type": "uint256"
        }
      ],
      "stateMutability": "view",
      "type": "function"
    },
    {
      "inputs": [],
      "name": "getTotalStaked",
      "outputs": [
        {
          "internalType": "uint256",
          "name": "",
          "type": "uint256"
        }
      ],
      "stateMutability": "view",
      "type": "function"
    },
    {
      "inputs": [
        {
          "internalType": "address",
          "name": "account",
          "type": "address"
        }
      ],
      "name": "getUserEarnedAmount",
      "outputs": [
        {
          "internalType": "uint256",
          "name": "",
          "type": "uint256"
        }
      ],
      "stateMutability": "view",
      "type": "function"
    },
    {
      "inputs": [],
      "name": "getStakingUsers",
      "outputs": [
        {
          "internalType": "address[]",
          "name": "",
          "type": "address[]"
        }
      ],
      "stateMutability": "view",
      "type": "function"
    },
    {
      "inputs": [
        {
          "internalType": "address",
          "name": "account",
          "type": "address"
        }
      ],
      "name": "getStakingHistories",
      "outputs": [
        {
          "components": [
            {
              "internalType": "uint256",
              "name": "time",
              "type": "uint256"
            },
            {
              "internalType": "uint256",
              "name": "amount",
              "type": "uint256"
            }
          ],
          "internalType": "struct AvatarArtStaking.TransactionHistory[]",
          "name": "",
          "type": "tuple[]"
        }
      ],
      "stateMutability": "view",
      "type": "function"
    },
    {
      "inputs": [
        {
          "internalType": "address",
          "name": "account",
          "type": "address"
        }
      ],
      "name": "getUserLastStakingTime",
      "outputs": [
        {
          "internalType": "uint256",
          "name": "",
          "type": "uint256"
        }
      ],
      "stateMutability": "view",
      "type": "function"
    },
    {
      "inputs": [
        {
          "internalType": "address",
          "name": "account",
          "type": "address"
        },
        {
          "internalType": "uint256",
          "name": "nftStageIndex",
          "type": "uint256"
        },
        {
          "internalType": "bool",
          "name": "isAllTime",
          "type": "bool"
        }
      ],
      "name": "getUserNftTicket",
      "outputs": [
        {
          "internalType": "uint256",
          "name": "",
          "type": "uint256"
        }
      ],
      "stateMutability": "view",
      "type": "function"
    },
    {
      "inputs": [
        {
          "internalType": "address",
          "name": "account",
          "type": "address"
        }
      ],
      "name": "getUserRewardPendingTime",
      "outputs": [
        {
          "internalType": "uint256",
          "name": "",
          "type": "uint256"
        }
      ],
      "stateMutability": "view",
      "type": "function"
    },
    {
      "inputs": [
        {
          "internalType": "address",
          "name": "account",
          "type": "address"
        }
      ],
      "name": "getUserStakedAmount",
      "outputs": [
        {
          "internalType": "uint256",
          "name": "",
          "type": "uint256"
        }
      ],
      "stateMutability": "view",
      "type": "function"
    },
    {
      "inputs": [
        {
          "internalType": "address",
          "name": "account",
          "type": "address"
        }
      ],
      "name": "getWithdrawalHistories",
      "outputs": [
        {
          "components": [
            {
              "internalType": "uint256",
              "name": "time",
              "type": "uint256"
            },
            {
              "internalType": "uint256",
              "name": "amount",
              "type": "uint256"
            }
          ],
          "internalType": "struct AvatarArtStaking.TransactionHistory[]",
          "name": "",
          "type": "tuple[]"
        }
      ],
      "stateMutability": "view",
      "type": "function"
    },
    {
      "inputs": [
        {
          "internalType": "uint256",
          "name": "index",
          "type": "uint256"
        },
        {
          "internalType": "bool",
          "name": "isActive",
          "type": "bool"
        },
        {
          "internalType": "bool",
          "name": "isAllowWithdrawal",
          "type": "bool"
        }
      ],
      "name": "setNftStage",
      "outputs": [
        {
          "internalType": "bool",
          "name": "",
          "type": "bool"
        }
      ],
      "stateMutability": "nonpayable",
      "type": "function"
    },
    {
      "inputs": [
        {
          "internalType": "address",
          "name": "tokenAddress",
          "type": "address"
        }
      ],
      "name": "setBnuTokenAddress",
      "outputs": [],
      "stateMutability": "nonpayable",
      "type": "function"
    },
    {
      "inputs": [
        {
          "internalType": "uint256",
          "name": "apr",
          "type": "uint256"
        }
      ],
      "name": "setApr",
      "outputs": [],
      "stateMutability": "nonpayable",
      "type": "function"
    },
    {
      "inputs": [
        {
          "internalType": "uint256",
          "name": "amount",
          "type": "uint256"
        }
      ],
      "name": "stake",
      "outputs": [
        {
          "internalType": "bool",
          "name": "",
          "type": "bool"
        }
      ],
      "stateMutability": "nonpayable",
      "type": "function"
    },
    {
      "inputs": [],
      "name": "stop",
      "outputs": [],
      "stateMutability": "nonpayable",
      "type": "function"
    },
    {
      "inputs": [
        {
          "internalType": "uint256",
          "name": "amount",
          "type": "uint256"
        }
      ],
      "name": "withdraw",
      "outputs": [
        {
          "internalType": "bool",
          "name": "",
          "type": "bool"
        }
      ],
      "stateMutability": "nonpayable",
      "type": "function"
    }
  ],
  "bytecode": "0x60806040523480156200001157600080fd5b50604051620034b9380380620034b9833981810160405281019062000037919062000126565b62000047620000f060201b60201c565b6000806101000a81548173ffffffffffffffffffffffffffffffffffffffff021916908373ffffffffffffffffffffffffffffffffffffffff16021790555060018060146101000a81548160ff02191690831515021790555081600260006101000a81548173ffffffffffffffffffffffffffffffffffffffff021916908373ffffffffffffffffffffffffffffffffffffffff160217905550806005819055505050620001d9565b600033905090565b6000815190506200010981620001a5565b92915050565b6000815190506200012081620001bf565b92915050565b600080604083850312156200013a57600080fd5b60006200014a85828601620000f8565b92505060206200015d858286016200010f565b9150509250929050565b600062000174826200017b565b9050919050565b600073ffffffffffffffffffffffffffffffffffffffff82169050919050565b6000819050919050565b620001b08162000167565b8114620001bc57600080fd5b50565b620001ca816200019b565b8114620001d657600080fd5b50565b6132d080620001e96000396000f3fe608060405234801561001057600080fd5b50600436106101a95760003560e01c806359cee29c116100f957806394465b2111610097578063bb10170511610071578063bb101705146104e8578063e046a47814610504578063e306656f1461050e578063f9d0291f1461052a576101a9565b806394465b211461046a578063a694fc3a1461049a578063a752a24d146104ca576101a9565b8063845bc804116100d3578063845bc804146103e0578063863e76db146103fe578063893d20e81461041c57806391a600361461043a576101a9565b806359cee29c14610364578063657f48901461038057806380a27ff9146103b0576101a9565b80632e1a7d4d116101665780633ea6d9a6116101405780633ea6d9a6146102dc57806346121a99146102f85780634af899a2146103285780635333c85514610346576101a9565b80632e1a7d4d14610272578063333e2b67146102a25780633ca5a243146102d2576101a9565b806307da68f5146101ae5780630917e776146101b85780630c917c47146101d657806316d3bfbb146102065780631d2673b71461022457806328040a1e14610242575b600080fd5b6101b6610548565b005b6101c0610646565b6040516101cd9190612d1f565b60405180910390f35b6101f060048036038101906101eb919061255b565b610650565b6040516101fd9190612d1f565b60405180910390f35b61020e61070c565b60405161021b9190612d1f565b60405180910390f35b61022c610714565b6040516102399190612b3e565b60405180910390f35b61025c6004803603810190610257919061264e565b6107a2565b6040516102699190612ba4565b60405180910390f35b61028c600480360381019061028791906125fc565b610958565b6040516102999190612ba4565b60405180910390f35b6102bc60048036038101906102b7919061255b565b610e12565b6040516102c99190612d1f565b60405180910390f35b6102da610e24565b005b6102f660048036038101906102f1919061255b565b611031565b005b610312600480360381019061030d919061255b565b61117a565b60405161031f9190612d1f565b60405180910390f35b61033061118c565b60405161033d9190612d1f565b60405180910390f35b61034e611196565b60405161035b9190612b60565b60405180910390f35b61037e600480360381019061037991906125fc565b61123f565b005b61039a6004803603810190610395919061255b565b61136f565b6040516103a79190612b82565b60405180910390f35b6103ca60048036038101906103c5919061255b565b611421565b6040516103d79190612b82565b60405180910390f35b6103e86114d3565b6040516103f59190612d1f565b60405180910390f35b6104066114dd565b6040516104139190612d1f565b60405180910390f35b6104246114e4565b6040516104319190612a9a565b60405180910390f35b610454600480360381019061044f9190612584565b61150d565b6040516104619190612d1f565b60405180910390f35b610484600480360381019061047f919061255b565b611920565b6040516104919190612d1f565b60405180910390f35b6104b460048036038101906104af91906125fc565b611969565b6040516104c19190612ba4565b60405180910390f35b6104d2611ce9565b6040516104df9190612d1f565b60405180910390f35b61050260048036038101906104fd919061269d565b611cef565b005b61050c611e72565b005b6105286004803603810190610523919061255b565b611f33565b005b61053261209b565b60405161053f9190612a9a565b60405180910390f35b60008054906101000a900473ffffffffffffffffffffffffffffffffffffffff1673ffffffffffffffffffffffffffffffffffffffff166105876120c5565b73ffffffffffffffffffffffffffffffffffffffff16146105dd576040517f08c379a00000000000000000000000000000000000000000000000000000000081526004016105d490612c1f565b60405180910390fd5b6000600160146101000a81548160ff0219169083151502179055506106006120cd565b6003819055507f5378e99f1c6cc344f21e74745742dd30c73797900a542307d5d109383b01bf2861062f6120cd565b60405161063c9190612d1f565b60405180910390a1565b6000600454905090565b600080600760008473ffffffffffffffffffffffffffffffffffffffff1673ffffffffffffffffffffffffffffffffffffffff1681526020019081526020016000205490506000600660008573ffffffffffffffffffffffffffffffffffffffff1673ffffffffffffffffffffffffffffffffffffffff1681526020019081526020016000205490506000811115610702576106f4816106ef866120d5565b61213b565b826106ff9190612df6565b91505b8192505050919050565b6301e1338081565b6060600b80548060200260200160405190810160405280929190818152602001828054801561079857602002820191906000526020600020905b8160009054906101000a900473ffffffffffffffffffffffffffffffffffffffff1673ffffffffffffffffffffffffffffffffffffffff168152602001906001019080831161074e575b5050505050905090565b60008060009054906101000a900473ffffffffffffffffffffffffffffffffffffffff1673ffffffffffffffffffffffffffffffffffffffff166107e46120c5565b73ffffffffffffffffffffffffffffffffffffffff161461083a576040517f08c379a000000000000000000000000000000000000000000000000000000000815260040161083190612c1f565b60405180910390fd5b6000600c805490509050808510610886576040517f08c379a000000000000000000000000000000000000000000000000000000000815260040161087d90612c7f565b60405180910390fd5b83600c86815481106108c1577f4e487b7100000000000000000000000000000000000000000000000000000000600052603260045260246000fd5b906000526020600020906003020160020160006101000a81548160ff02191690831515021790555082600c8681548110610924577f4e487b7100000000000000000000000000000000000000000000000000000000600052603260045260246000fd5b906000526020600020906003020160020160016101000a81548160ff02191690831515021790555060019150509392505050565b600061096a6109656120c5565b612186565b600080610975612290565b915091506000600260009054906101000a900473ffffffffffffffffffffffffffffffffffffffff1690508215806109ae575081606001515b80156109ba5750600085115b15610b095784600660006109cc6120c5565b73ffffffffffffffffffffffffffffffffffffffff1673ffffffffffffffffffffffffffffffffffffffff1681526020019081526020016000206000828254610a159190612ed7565b925050819055508460046000828254610a2e9190612ed7565b925050819055508073ffffffffffffffffffffffffffffffffffffffff1663a9059cbb610a596120c5565b876040518363ffffffff1660e01b8152600401610a77929190612b15565b602060405180830381600087803b158015610a9157600080fd5b505af1158015610aa5573d6000803e3d6000fd5b505050506040513d601f19601f82011682018060405250810190610ac991906125d3565b610b08576040517f08c379a0000000000000000000000000000000000000000000000000000000008152600401610aff90612cbf565b60405180910390fd5b5b600060076000610b176120c5565b73ffffffffffffffffffffffffffffffffffffffff1673ffffffffffffffffffffffffffffffffffffffff1681526020019081526020016000205490506000811115610d1a57806004548373ffffffffffffffffffffffffffffffffffffffff166370a08231306040518263ffffffff1660e01b8152600401610b9a9190612a9a565b60206040518083038186803b158015610bb257600080fd5b505afa158015610bc6573d6000803e3d6000fd5b505050506040513d601f19601f82011682018060405250810190610bea9190612625565b610bf49190612ed7565b10610d19578173ffffffffffffffffffffffffffffffffffffffff1663a9059cbb610c1d6120c5565b836040518363ffffffff1660e01b8152600401610c3b929190612b15565b602060405180830381600087803b158015610c5557600080fd5b505af1158015610c69573d6000803e3d6000fd5b505050506040513d601f19601f82011682018060405250810190610c8d91906125d3565b610ccc576040517f08c379a0000000000000000000000000000000000000000000000000000000008152600401610cc390612bbf565b60405180910390fd5b600060076000610cda6120c5565b73ffffffffffffffffffffffffffffffffffffffff1673ffffffffffffffffffffffffffffffffffffffff168152602001908152602001600020819055505b5b6000861115610dc557600a6000610d2f6120c5565b73ffffffffffffffffffffffffffffffffffffffff1673ffffffffffffffffffffffffffffffffffffffff1681526020019081526020016000206040518060400160405280610d7c6120cd565b8152602001888152509080600181540180825580915050600190039060005260206000209060020201600090919091909150600082015181600001556020820151816001015550505b7f7084f5476618d8e60b11ef0d7d3f06914655adb8793e28ff7f018d4c76d505d5610dee6120c5565b87604051610dfd929190612b15565b60405180910390a16001945050505050919050565b6000610e1d826120d5565b9050919050565b600073ffffffffffffffffffffffffffffffffffffffff16600160009054906101000a900473ffffffffffffffffffffffffffffffffffffffff1673ffffffffffffffffffffffffffffffffffffffff161415610eb6576040517f08c379a0000000000000000000000000000000000000000000000000000000008152600401610ead90612c3f565b60405180910390fd5b600160009054906101000a900473ffffffffffffffffffffffffffffffffffffffff1673ffffffffffffffffffffffffffffffffffffffff16610ef76120c5565b73ffffffffffffffffffffffffffffffffffffffff1614610f4d576040517f08c379a0000000000000000000000000000000000000000000000000000000008152600401610f4490612c1f565b60405180910390fd5b60008060009054906101000a900473ffffffffffffffffffffffffffffffffffffffff169050600160009054906101000a900473ffffffffffffffffffffffffffffffffffffffff166000806101000a81548173ffffffffffffffffffffffffffffffffffffffff021916908373ffffffffffffffffffffffffffffffffffffffff1602179055507fb532073b38c83145e3e5135377a08bf9aab55bc0fd7c1179cd4fb995d2a5159c8160008054906101000a900473ffffffffffffffffffffffffffffffffffffffff16604051611026929190612ab5565b60405180910390a150565b60008054906101000a900473ffffffffffffffffffffffffffffffffffffffff1673ffffffffffffffffffffffffffffffffffffffff166110706120c5565b73ffffffffffffffffffffffffffffffffffffffff16146110c6576040517f08c379a00000000000000000000000000000000000000000000000000000000081526004016110bd90612c1f565b60405180910390fd5b600073ffffffffffffffffffffffffffffffffffffffff168173ffffffffffffffffffffffffffffffffffffffff161415611136576040517f08c379a000000000000000000000000000000000000000000000000000000000815260040161112d90612c3f565b60405180910390fd5b80600260006101000a81548173ffffffffffffffffffffffffffffffffffffffff021916908373ffffffffffffffffffffffffffffffffffffffff16021790555050565b6000611185826123a8565b9050919050565b6000600354905090565b6060600c805480602002602001604051908101604052809291908181526020016000905b82821015611236578382906000526020600020906003020160405180608001604052908160008201548152602001600182015481526020016002820160009054906101000a900460ff161515151581526020016002820160019054906101000a900460ff161515151581525050815260200190600101906111ba565b50505050905090565b60008054906101000a900473ffffffffffffffffffffffffffffffffffffffff1673ffffffffffffffffffffffffffffffffffffffff1661127e6120c5565b73ffffffffffffffffffffffffffffffffffffffff16146112d4576040517f08c379a00000000000000000000000000000000000000000000000000000000081526004016112cb90612c1f565b60405180910390fd5b60005b600b8054905081101561136457611351600b8281548110611321577f4e487b7100000000000000000000000000000000000000000000000000000000600052603260045260246000fd5b9060005260206000200160009054906101000a900473ffffffffffffffffffffffffffffffffffffffff16612186565b808061135c90612f53565b9150506112d7565b508060058190555050565b6060600960008373ffffffffffffffffffffffffffffffffffffffff1673ffffffffffffffffffffffffffffffffffffffff168152602001908152602001600020805480602002602001604051908101604052809291908181526020016000905b82821015611416578382906000526020600020906002020160405180604001604052908160008201548152602001600182015481525050815260200190600101906113d0565b505050509050919050565b6060600a60008373ffffffffffffffffffffffffffffffffffffffff1673ffffffffffffffffffffffffffffffffffffffff168152602001908152602001600020805480602002602001604051908101604052809291908181526020016000905b828210156114c857838290600052602060002090600202016040518060400160405290816000820154815260200160018201548152505081526020019060010190611482565b505050509050919050565b6000600554905090565b6201518081565b60008060009054906101000a900473ffffffffffffffffffffffffffffffffffffffff16905090565b6000600c805490508310611556576040517f08c379a000000000000000000000000000000000000000000000000000000000815260040161154d90612bdf565b60405180910390fd5b6000600960008673ffffffffffffffffffffffffffffffffffffffff1673ffffffffffffffffffffffffffffffffffffffff168152602001908152602001600020805480602002602001604051908101604052809291908181526020016000905b828210156115fd578382906000526020600020906002020160405180604001604052908160008201548152602001600182015481525050815260200190600101906115b7565b505050509050600081511415611617576000915050611919565b6000600c8581548110611653577f4e487b7100000000000000000000000000000000000000000000000000000000600052603260045260246000fd5b906000526020600020906003020160405180608001604052908160008201548152602001600182015481526020016002820160009054906101000a900460ff161515151581526020016002820160019054906101000a900460ff161515151581525050905080604001516116cc57600092505050611919565b6000600a60008873ffffffffffffffffffffffffffffffffffffffff1673ffffffffffffffffffffffffffffffffffffffff168152602001908152602001600020805480602002602001604051908101604052809291908181526020016000905b828210156117735783829060005260206000209060020201604051806040016040529081600082015481526020016001820154815250508152602001906001019061172d565b5050505090506000806000805b856020015186600001511161190e5760006201518087600001516117a49190612df6565b90505b875183101561183c5760008884815181106117eb577f4e487b7100000000000000000000000000000000000000000000000000000000600052603260045260246000fd5b6020026020010151905087600001518160000151101580156118105750818160000151105b15611828578060200151836118259190612df6565b92505b50828061183490612f53565b9350506117a7565b5b85518510156118d2576000868681518110611881577f4e487b7100000000000000000000000000000000000000000000000000000000600052603260045260246000fd5b6020026020010151905087600001518160000151101580156118a65750818160000151105b156118be578060200151836118bb9190612ed7565b92505b5084806118ca90612f53565b95505061183d565b81846118de9190612df6565b93508087600001818152505089611908576118f76120cd565b876000015110611907575061190e565b5b50611780565b829750505050505050505b9392505050565b6000600660008373ffffffffffffffffffffffffffffffffffffffff1673ffffffffffffffffffffffffffffffffffffffff168152602001908152602001600020549050919050565b6000600160149054906101000a900460ff166119ba576040517f08c379a00000000000000000000000000000000000000000000000000000000081526004016119b190612cdf565b60405180910390fd5b600082116119fd576040517f08c379a00000000000000000000000000000000000000000000000000000000081526004016119f490612c9f565b60405180910390fd5b600260009054906101000a900473ffffffffffffffffffffffffffffffffffffffff1673ffffffffffffffffffffffffffffffffffffffff166323b872dd611a436120c5565b30856040518463ffffffff1660e01b8152600401611a6393929190612ade565b602060405180830381600087803b158015611a7d57600080fd5b505af1158015611a91573d6000803e3d6000fd5b505050506040513d601f19601f82011682018060405250810190611ab591906125d3565b611af4576040517f08c379a0000000000000000000000000000000000000000000000000000000008152600401611aeb90612c5f565b60405180910390fd5b611b04611aff6120c5565b612186565b600060096000611b126120c5565b73ffffffffffffffffffffffffffffffffffffffff1673ffffffffffffffffffffffffffffffffffffffff1681526020019081526020016000209050806040518060400160405280611b626120cd565b8152602001858152509080600181540180825580915050600190039060005260206000209060020201600090919091909150600082015181600001556020820151816001015550508260066000611bb76120c5565b73ffffffffffffffffffffffffffffffffffffffff1673ffffffffffffffffffffffffffffffffffffffff1681526020019081526020016000206000828254611c009190612df6565b925050819055508260046000828254611c199190612df6565b92505081905550611c30611c2b6120c5565b6123f1565b611c9f57600b611c3e6120c5565b9080600181540180825580915050600190039060005260206000200160009091909190916101000a81548173ffffffffffffffffffffffffffffffffffffffff021916908373ffffffffffffffffffffffffffffffffffffffff1602179055505b7f9e71bc8eea02a63969f509818f2dafb9254532904319f9dbda79b67bd34a5f3d611cc86120c5565b84604051611cd7929190612b15565b60405180910390a16001915050919050565b6103e881565b60008054906101000a900473ffffffffffffffffffffffffffffffffffffffff1673ffffffffffffffffffffffffffffffffffffffff16611d2e6120c5565b73ffffffffffffffffffffffffffffffffffffffff1614611d84576040517f08c379a0000000000000000000000000000000000000000000000000000000008152600401611d7b90612c1f565b60405180910390fd5b808210611dc6576040517f08c379a0000000000000000000000000000000000000000000000000000000008152600401611dbd90612cff565b60405180910390fd5b600c6040518060800160405280848152602001838152602001600115158152602001600015158152509080600181540180825580915050600190039060005260206000209060030201600090919091909150600082015181600001556020820151816001015560408201518160020160006101000a81548160ff02191690831515021790555060608201518160020160016101000a81548160ff02191690831515021790555050505050565b60008054906101000a900473ffffffffffffffffffffffffffffffffffffffff1673ffffffffffffffffffffffffffffffffffffffff16611eb16120c5565b73ffffffffffffffffffffffffffffffffffffffff1614611f07576040517f08c379a0000000000000000000000000000000000000000000000000000000008152600401611efe90612c1f565b60405180910390fd5b600160149054906101000a900460ff1615600160146101000a81548160ff021916908315150217905550565b60008054906101000a900473ffffffffffffffffffffffffffffffffffffffff1673ffffffffffffffffffffffffffffffffffffffff16611f726120c5565b73ffffffffffffffffffffffffffffffffffffffff1614611fc8576040517f08c379a0000000000000000000000000000000000000000000000000000000008152600401611fbf90612c1f565b60405180910390fd5b8073ffffffffffffffffffffffffffffffffffffffff1660008054906101000a900473ffffffffffffffffffffffffffffffffffffffff1673ffffffffffffffffffffffffffffffffffffffff161415612057576040517f08c379a000000000000000000000000000000000000000000000000000000000815260040161204e90612bff565b60405180910390fd5b80600160006101000a81548173ffffffffffffffffffffffffffffffffffffffff021916908373ffffffffffffffffffffffffffffffffffffffff16021790555050565b6000600260009054906101000a900473ffffffffffffffffffffffffffffffffffffffff16905090565b600033905090565b600042905090565b6000600160149054906101000a900460ff161580156120f657506000600354115b1561211857612104826123a8565b6003546121119190612ed7565b9050612136565b612121826123a8565b6121296120cd565b6121339190612ed7565b90505b919050565b600060646301e133806103e860055485876121569190612e7d565b6121609190612e7d565b61216a9190612e4c565b6121749190612e4c565b61217e9190612e4c565b905092915050565b6000600660008373ffffffffffffffffffffffffffffffffffffffff1673ffffffffffffffffffffffffffffffffffffffff16815260200190815260200160002054905060008111156122415760006121e7826121e2856120d5565b61213b565b905080600760008573ffffffffffffffffffffffffffffffffffffffff1673ffffffffffffffffffffffffffffffffffffffff16815260200190815260200160002060008282546122389190612df6565b92505081905550505b6122496120cd565b600860008473ffffffffffffffffffffffffffffffffffffffff1673ffffffffffffffffffffffffffffffffffffffff168152602001908152602001600020819055505050565b600061229a6124c6565b60005b600c8054905081101561239e57600c81815481106122e4577f4e487b7100000000000000000000000000000000000000000000000000000000600052603260045260246000fd5b906000526020600020906003020160405180608001604052908160008201548152602001600182015481526020016002820160009054906101000a900460ff161515151581526020016002820160019054906101000a900460ff161515151581525050915081604001518015612365575061235d6120cd565b826000015111155b801561237c57506123746120cd565b826020015110155b1561238b5760019250506123a4565b808061239690612f53565b91505061229d565b50600091505b9091565b6000600860008373ffffffffffffffffffffffffffffffffffffffff1673ffffffffffffffffffffffffffffffffffffffff168152602001908152602001600020549050919050565b600080600090505b600b805490508110156124bb578273ffffffffffffffffffffffffffffffffffffffff16600b8281548110612457577f4e487b7100000000000000000000000000000000000000000000000000000000600052603260045260246000fd5b9060005260206000200160009054906101000a900473ffffffffffffffffffffffffffffffffffffffff1673ffffffffffffffffffffffffffffffffffffffff1614156124a85760019150506124c1565b80806124b390612f53565b9150506123f9565b50600090505b919050565b604051806080016040528060008152602001600081526020016000151581526020016000151581525090565b60008135905061250181613255565b92915050565b6000813590506125168161326c565b92915050565b60008151905061252b8161326c565b92915050565b60008135905061254081613283565b92915050565b60008151905061255581613283565b92915050565b60006020828403121561256d57600080fd5b600061257b848285016124f2565b91505092915050565b60008060006060848603121561259957600080fd5b60006125a7868287016124f2565b93505060206125b886828701612531565b92505060406125c986828701612507565b9150509250925092565b6000602082840312156125e557600080fd5b60006125f38482850161251c565b91505092915050565b60006020828403121561260e57600080fd5b600061261c84828501612531565b91505092915050565b60006020828403121561263757600080fd5b600061264584828501612546565b91505092915050565b60008060006060848603121561266357600080fd5b600061267186828701612531565b935050602061268286828701612507565b925050604061269386828701612507565b9150509250925092565b600080604083850312156126b057600080fd5b60006126be85828601612531565b92505060206126cf85828601612531565b9150509250929050565b60006126e58383612721565b60208301905092915050565b60006126fd83836129f8565b60808301905092915050565b60006127158383612a4d565b60408301905092915050565b61272a81612f0b565b82525050565b61273981612f0b565b82525050565b600061274a82612d6a565b6127548185612db2565b935061275f83612d3a565b8060005b8381101561279057815161277788826126d9565b975061278283612d8b565b925050600181019050612763565b5085935050505092915050565b60006127a882612d75565b6127b28185612dc3565b93506127bd83612d4a565b8060005b838110156127ee5781516127d588826126f1565b97506127e083612d98565b9250506001810190506127c1565b5085935050505092915050565b600061280682612d80565b6128108185612dd4565b935061281b83612d5a565b8060005b8381101561284c5781516128338882612709565b975061283e83612da5565b92505060018101905061281f565b5085935050505092915050565b61286281612f1d565b82525050565b61287181612f1d565b82525050565b6000612884601d83612de5565b915061288f82612ffa565b602082019050919050565b60006128a7601a83612de5565b91506128b282613023565b602082019050919050565b60006128ca601a83612de5565b91506128d58261304c565b602082019050919050565b60006128ed600983612de5565b91506128f882613075565b602082019050919050565b6000612910600c83612de5565b915061291b8261309e565b602082019050919050565b6000612933602283612de5565b915061293e826130c7565b604082019050919050565b6000612956601083612de5565b915061296182613116565b602082019050919050565b6000612979602283612de5565b91506129848261313f565b604082019050919050565b600061299c602283612de5565b91506129a78261318e565b604082019050919050565b60006129bf601283612de5565b91506129ca826131dd565b602082019050919050565b60006129e2602783612de5565b91506129ed82613206565b604082019050919050565b608082016000820151612a0e6000850182612a7c565b506020820151612a216020850182612a7c565b506040820151612a346040850182612859565b506060820151612a476060850182612859565b50505050565b604082016000820151612a636000850182612a7c565b506020820151612a766020850182612a7c565b50505050565b612a8581612f49565b82525050565b612a9481612f49565b82525050565b6000602082019050612aaf6000830184612730565b92915050565b6000604082019050612aca6000830185612730565b612ad76020830184612730565b9392505050565b6000606082019050612af36000830186612730565b612b006020830185612730565b612b0d6040830184612a8b565b949350505050565b6000604082019050612b2a6000830185612730565b612b376020830184612a8b565b9392505050565b60006020820190508181036000830152612b58818461273f565b905092915050565b60006020820190508181036000830152612b7a818461279d565b905092915050565b60006020820190508181036000830152612b9c81846127fb565b905092915050565b6000602082019050612bb96000830184612868565b92915050565b60006020820190508181036000830152612bd881612877565b9050919050565b60006020820190508181036000830152612bf88161289a565b9050919050565b60006020820190508181036000830152612c18816128bd565b9050919050565b60006020820190508181036000830152612c38816128e0565b9050919050565b60006020820190508181036000830152612c5881612903565b9050919050565b60006020820190508181036000830152612c7881612926565b9050919050565b60006020820190508181036000830152612c9881612949565b9050919050565b60006020820190508181036000830152612cb88161296c565b9050919050565b60006020820190508181036000830152612cd88161298f565b9050919050565b60006020820190508181036000830152612cf8816129b2565b9050919050565b60006020820190508181036000830152612d18816129d5565b9050919050565b6000602082019050612d346000830184612a8b565b92915050565b6000819050602082019050919050565b6000819050602082019050919050565b6000819050602082019050919050565b600081519050919050565b600081519050919050565b600081519050919050565b6000602082019050919050565b6000602082019050919050565b6000602082019050919050565b600082825260208201905092915050565b600082825260208201905092915050565b600082825260208201905092915050565b600082825260208201905092915050565b6000612e0182612f49565b9150612e0c83612f49565b9250827fffffffffffffffffffffffffffffffffffffffffffffffffffffffffffffffff03821115612e4157612e40612f9c565b5b828201905092915050565b6000612e5782612f49565b9150612e6283612f49565b925082612e7257612e71612fcb565b5b828204905092915050565b6000612e8882612f49565b9150612e9383612f49565b9250817fffffffffffffffffffffffffffffffffffffffffffffffffffffffffffffffff0483118215151615612ecc57612ecb612f9c565b5b828202905092915050565b6000612ee282612f49565b9150612eed83612f49565b925082821015612f0057612eff612f9c565b5b828203905092915050565b6000612f1682612f29565b9050919050565b60008115159050919050565b600073ffffffffffffffffffffffffffffffffffffffff82169050919050565b6000819050919050565b6000612f5e82612f49565b91507fffffffffffffffffffffffffffffffffffffffffffffffffffffffffffffffff821415612f9157612f90612f9c565b5b600182019050919050565b7f4e487b7100000000000000000000000000000000000000000000000000000000600052601160045260246000fd5b7f4e487b7100000000000000000000000000000000000000000000000000000000600052601260045260246000fd5b7f43616e206e6f742070617920696e74657265737420666f722075736572000000600082015250565b7f4e465420737461676520696e64657820697320696e76616c6964000000000000600082015250565b7f4e6577206f776e65722069732063757272656e74206f776e6572000000000000600082015250565b7f466f7262696464656e0000000000000000000000000000000000000000000000600082015250565b7f5a65726f20616464726573730000000000000000000000000000000000000000600082015250565b7f43616e206e6f74207472616e7366657220746f6b656e20746f20636f6e74726160008201527f6374000000000000000000000000000000000000000000000000000000000000602082015250565b7f496e64657820697320696e76616c696400000000000000000000000000000000600082015250565b7f416d6f756e742073686f756c642062652067726561746572207468616e207a6560008201527f726f000000000000000000000000000000000000000000000000000000000000602082015250565b7f43616e206e6f7420706179207374616b656420616d6f756e7420666f7220757360008201527f6572000000000000000000000000000000000000000000000000000000000000602082015250565b7f436f6e7472616374206973207061757365640000000000000000000000000000600082015250565b7f53746172742074696d652073686f756c64206265206c657373207468616e206560008201527f6e642074696d6500000000000000000000000000000000000000000000000000602082015250565b61325e81612f0b565b811461326957600080fd5b50565b61327581612f1d565b811461328057600080fd5b50565b61328c81612f49565b811461329757600080fd5b5056fea2646970667358221220ba88bdc3c43cdda4256a41c34a5d1e63a9eab22bbc0f07fedb993e94168a252464736f6c63430008040033",
  "immutableReferences": {},
  "source": "// SPDX-License-Identifier: MIT\r\n\r\npragma solidity ^0.8.0;\r\n\r\nimport \"./interfaces/IAvatarArtStaking.sol\";\r\nimport \"./interfaces/IERC20.sol\";\r\nimport \"./core/Runnable.sol\";\r\n\r\ncontract AvatarArtStaking is IAvatarArtStaking, Runnable{\r\n    struct NftStage{\r\n        uint startTime;\r\n        uint endTime;\r\n        bool isActive;\r\n        bool isAllowWithdrawal;\r\n    }\r\n    \r\n    struct TransactionHistory{\r\n        uint time;\r\n        uint amount;\r\n    }\r\n    \r\n    address internal _bnuTokenAddress;\r\n    uint internal _stopTime;\r\n    \r\n    //Store all BNU token amount that is staked in contract\r\n    uint internal _totalStakedAmount;\r\n    uint internal _apr;\r\n    uint public constant APR_MULTIPLIER = 1000;\r\n    uint public constant ONE_YEAR = 365 days;\r\n    uint public constant ONE_DAY = 1 days;\r\n    \r\n    //Store all BNU token amount that is staked by user\r\n    //Mapping user account => token amount\r\n    mapping(address => uint) internal _userStakeds;\r\n    \r\n    //Store all earned BNU token amount that will be reward for user when he stakes\r\n    //Mapping user account => token amount\r\n    mapping(address => uint) internal _userEarneds;\r\n    \r\n    //Store the last time user stakes\r\n    //Mapping user account => time\r\n    mapping(address => uint) internal _userLastStakingTimes;\r\n    \r\n    //Store user's staking histories\r\n    //Mapping user account => Staking history\r\n    mapping(address => TransactionHistory[]) internal _stakingHistories;\r\n    \r\n    //Store user's withdrawal histories\r\n    //Mapping user account => withdrawal history\r\n    mapping(address => TransactionHistory[]) internal _withdrawHistories;\r\n    \r\n    //List of staking users \r\n    address[] internal _stakingUsers;\r\n    \r\n    //NFT\r\n    //Store to check whether NFT is running or not\r\n    NftStage[] internal _nftStages;\r\n    \r\n    constructor(address bnuTokenAddress, uint apr){\r\n        _bnuTokenAddress = bnuTokenAddress;\r\n        _apr = apr;\r\n    }\r\n    \r\n    /**\r\n     * @dev Create new NFT stage\r\n    */ \r\n    function createNftStage(uint startTime, uint endTime) external onlyOwner{\r\n        require(startTime < endTime, \"Start time should be less than end time\");\r\n        _nftStages.push(NftStage(startTime, endTime, true, false));\r\n    }\r\n    \r\n    /**\r\n     * @dev Get APR\r\n    */\r\n    function getApr() external override view returns(uint){\r\n        return _apr;\r\n    }\r\n    \r\n    /**\r\n     * @dev Get BNU token address\r\n    */\r\n    function getBnuTokenAddress() external view returns(address){\r\n        return _bnuTokenAddress;\r\n    }\r\n    \r\n    function getNftStages() external view returns(NftStage[] memory){\r\n        return _nftStages;\r\n    }\r\n    \r\n    function getStopTime() external view returns(uint){\r\n        return _stopTime;\r\n    }\r\n    \r\n    /**\r\n     * @dev Get total BNU token amount staked in contract\r\n     */ \r\n    function getTotalStaked() external override view returns(uint){\r\n        return _totalStakedAmount;\r\n    }\r\n    \r\n    /**\r\n     * @dev Get user's BNU earned\r\n     * It includes stored interest and pending interest\r\n     */ \r\n    function getUserEarnedAmount(address account) external override view returns(uint){\r\n        uint earnedAmount = _userEarneds[account];\r\n        \r\n        //Calculate pending amount\r\n        uint userStakedAmount = _userStakeds[account];\r\n        if(userStakedAmount > 0){\r\n            earnedAmount += _calculatePendingEarned(userStakedAmount, _getUserRewardPendingTime(account));\r\n        }\r\n        \r\n        return earnedAmount;\r\n    }\r\n    \r\n    /**\r\n     * @dev Get list of users who are staking\r\n     */ \r\n    function getStakingUsers() external override view returns(address[] memory){\r\n        return _stakingUsers;\r\n    }\r\n    \r\n    /**\r\n     * @dev Get staking histories of `account`\r\n     */ \r\n    function getStakingHistories(address account) external view returns(TransactionHistory[] memory){\r\n        return _stakingHistories[account];\r\n    }\r\n    \r\n    function getUserLastStakingTime(address account) external view returns(uint){\r\n        return _getUserLastStakingTime(account);\r\n    }\r\n    \r\n    /**\r\n     * @dev Get user ticket slot for receiving NFT\r\n     */ \r\n    function getUserNftTicket(address account, uint nftStageIndex, bool isAllTime) external override view returns(uint){\r\n        require(nftStageIndex < _nftStages.length, \"NFT stage index is invalid\");\r\n        TransactionHistory[] memory stakingHistories = _stakingHistories[account];\r\n        if(stakingHistories.length == 0)\r\n            return 0;\r\n            \r\n        NftStage memory nftStage = _nftStages[nftStageIndex];\r\n        if(!nftStage.isActive)\r\n            return 0;\r\n            \r\n        TransactionHistory[] memory withdrawHistories = _withdrawHistories[account];\r\n        uint withdrawalIndex = 0;\r\n        uint result = 0;\r\n        uint stakingIndex = 0;\r\n        uint stakedAmount = 0;\r\n        while(nftStage.startTime <= nftStage.endTime){\r\n            uint nextDay = nftStage.startTime + ONE_DAY;\r\n            for(stakingIndex; stakingIndex < stakingHistories.length; stakingIndex++){\r\n                TransactionHistory memory stakingHistory = stakingHistories[stakingIndex];\r\n                if(stakingHistory.time >= nftStage.startTime && stakingHistory.time < nextDay){\r\n                    stakedAmount += stakingHistory.amount;\r\n                }\r\n            }\r\n            \r\n            for(withdrawalIndex; withdrawalIndex < withdrawHistories.length; withdrawalIndex++){\r\n                TransactionHistory memory withdrawHistory = withdrawHistories[withdrawalIndex];\r\n                if(withdrawHistory.time >= nftStage.startTime && withdrawHistory.time < nextDay){\r\n                    stakedAmount -= withdrawHistory.amount;\r\n                }\r\n            }\r\n            \r\n            result += stakedAmount;\r\n            \r\n            nftStage.startTime = nextDay;\r\n            if(!isAllTime){\r\n                if(nftStage.startTime >= _now())\r\n                    break;\r\n            }\r\n        }\r\n        \r\n        return result;\r\n    }\r\n    \r\n    function getUserRewardPendingTime(address account) external view returns(uint){\r\n        return _getUserRewardPendingTime(account);\r\n    }\r\n    \r\n    /**\r\n     * @dev Get total BNU token amount staked by `account`\r\n     */ \r\n    function getUserStakedAmount(address account) external override view returns(uint){\r\n        return _userStakeds[account];\r\n    }\r\n    \r\n    /**\r\n     * @dev Get withdrawal histories of `account`\r\n     */ \r\n    function getWithdrawalHistories(address account) external view returns(TransactionHistory[] memory){\r\n        return _withdrawHistories[account];\r\n    }\r\n    \r\n    /**\r\n     * @dev Remove NFT stage from data\r\n     */ \r\n    function setNftStage(uint index, bool isActive, bool isAllowWithdrawal) external onlyOwner returns(bool){\r\n        uint nftStageLength = _nftStages.length;\r\n        require(index < nftStageLength, \"Index is invalid\");\r\n        \r\n        _nftStages[index].isActive = isActive;\r\n        _nftStages[index].isAllowWithdrawal = isAllowWithdrawal;\r\n        return true;\r\n    }\r\n    \r\n    /**\r\n     * @dev Set BNU token address\r\n    */\r\n    function setBnuTokenAddress(address tokenAddress) external onlyOwner{\r\n        require(tokenAddress != address(0), \"Zero address\");\r\n        _bnuTokenAddress = tokenAddress;\r\n    }\r\n    \r\n    /**\r\n     * @dev Set APR\r\n     * Before set APR with new value, contract should process to calculate all current users' profit \r\n     * to reset interest\r\n    */\r\n    function setApr(uint apr) external onlyOwner{\r\n        for(uint userIndex = 0; userIndex < _stakingUsers.length; userIndex++){\r\n            _calculateInterest(_stakingUsers[userIndex]);\r\n        }\r\n        _apr = apr;\r\n    }\r\n    \r\n    /**\r\n     * @dev See IAvatarArtStaking\r\n     */ \r\n    function stake(uint amount) external override isRunning returns(bool){\r\n        //CHECK REQUIREMENTS\r\n        require(amount > 0, \"Amount should be greater than zero\");\r\n        \r\n        //Transfer token from user address to contract\r\n        require(IERC20(_bnuTokenAddress).transferFrom(_msgSender(), address(this), amount), \"Can not transfer token to contract\");\r\n        \r\n        //Calculate interest and store with extra interest\r\n        _calculateInterest(_msgSender());\r\n        \r\n        //Create staking history\r\n        TransactionHistory[] storage stakingHistories = _stakingHistories[_msgSender()];\r\n        stakingHistories.push(TransactionHistory(_now(), amount));\r\n        \r\n        //Update user staked amount and contract staked amount\r\n        _userStakeds[_msgSender()] += amount;\r\n        _totalStakedAmount += amount;\r\n        \r\n        if(!_isUserStaked(_msgSender()))\r\n            _stakingUsers.push(_msgSender());\r\n        \r\n        //Emit events\r\n        emit Staked(_msgSender(), amount);\r\n        \r\n        return true;\r\n    }\r\n    \r\n    /**\r\n     * @dev Stop staking program\r\n     */ \r\n    function stop() external onlyOwner{\r\n        _isRunning = false;\r\n        _stopTime = _now();\r\n        \r\n        emit Stopped(_now());\r\n    }\r\n    \r\n    /**\r\n     * @dev See IAvatarArtStaking\r\n     */ \r\n    function withdraw(uint amount) external override returns(bool){\r\n        //Calculate interest and store with extra interest\r\n        _calculateInterest(_msgSender());\r\n        \r\n        (bool hasNftStage, NftStage memory nftStage) = _getCurrentNftStage();\r\n        \r\n        IERC20 bnuTokenContract = IERC20(_bnuTokenAddress);\r\n        \r\n        //Calculate to withdraw staked amount\r\n        if((!hasNftStage || nftStage.isAllowWithdrawal) && amount > 0){\r\n            _userStakeds[_msgSender()] -= amount;\r\n            _totalStakedAmount -= amount;\r\n            \r\n            require(bnuTokenContract.transfer(_msgSender(), amount), \"Can not pay staked amount for user\");\r\n        }\r\n        \r\n        uint eanedAmount = _userEarneds[_msgSender()];\r\n        \r\n        //Pay all interest\r\n        if(eanedAmount > 0){\r\n            //Make sure that user can withdraw all their staked amount\r\n            if(bnuTokenContract.balanceOf(address(this)) - _totalStakedAmount >= eanedAmount){\r\n                require(bnuTokenContract.transfer(_msgSender(), eanedAmount), \"Can not pay interest for user\");\r\n                _userEarneds[_msgSender()] = 0;\r\n            }\r\n        }\r\n        \r\n        if(amount > 0)\r\n            _withdrawHistories[_msgSender()].push(TransactionHistory(_now(), amount));\r\n        \r\n        //Emit events \r\n        emit Withdrawn(_msgSender(), amount);\r\n        \r\n        return true;\r\n    }\r\n    \r\n    /**\r\n     * @dev Calculate and update user pending interest\r\n     */ \r\n    function _calculateInterest(address account) internal{\r\n        uint userStakedAmount = _userStakeds[account];\r\n        if(userStakedAmount > 0){\r\n            uint earnedAmount = _calculatePendingEarned(userStakedAmount, _getUserRewardPendingTime(account));\r\n            _userEarneds[account] += earnedAmount;\r\n        }\r\n        _userLastStakingTimes[account] = _now();\r\n    }\r\n    \r\n    /**\r\n     * @dev Calculate interest for user from `lastStakingTime` to  `now`\r\n     * based on user staked amount and apr\r\n     */ \r\n    function _calculatePendingEarned(uint userStakedAmount, uint pendingTime) internal view returns(uint){\r\n        return userStakedAmount * pendingTime * _apr / APR_MULTIPLIER / ONE_YEAR / 100;\r\n    }\r\n    \r\n    /**\r\n     * @dev Check user has staked or not\r\n     */\r\n    function _isUserStaked(address account) internal view returns(bool){\r\n        for(uint index = 0; index < _stakingUsers.length; index++){\r\n            if(_stakingUsers[index] == account)\r\n                return true;\r\n        }\r\n        \r\n        return false;\r\n    }\r\n    \r\n    /**\r\n     * @dev Get current NFT stage\r\n     */ \r\n    function _getCurrentNftStage() internal view returns(bool, NftStage memory nftStage){\r\n        for(uint index = 0; index < _nftStages.length; index++){\r\n            nftStage = _nftStages[index];\r\n            if(nftStage.isActive && nftStage.startTime <= _now() && nftStage.endTime >= _now())\r\n                return (true, nftStage);\r\n        }\r\n        \r\n        return (false, nftStage);\r\n    }\r\n    \r\n    function _getUserLastStakingTime(address account) internal view returns(uint){\r\n        return _userLastStakingTimes[account];\r\n    }\r\n    \r\n    function _getUserRewardPendingTime(address account) internal view returns(uint){\r\n        if(!_isRunning && _stopTime > 0)\r\n            return _stopTime - _getUserLastStakingTime(account);\r\n        return _now() - _getUserLastStakingTime(account);\r\n    }\r\n    \r\n    event Staked(address account, uint amount);\r\n    event Withdrawn(address account, uint amount);\r\n    event Stopped(uint time);\r\n}",
  "sourcePath": "D:/B/AvatarArt/contracts/avatar-art-staking/contracts/contracts/AvatarArtStaking.sol",
  "compiler": {
    "name": "solc",
    "version": "0.8.4+commit.c7e474f2.Emscripten.clang"
  },
  "schemaVersion": "3.3.1",
  "updatedAt": "2021-05-20T08:53:28.098Z",
  "devdoc": {
    "kind": "dev",
    "methods": {
      "createNftStage(uint256,uint256)": {
        "details": "Create new NFT stage"
      },
      "getApr()": {
        "details": "Get APR"
      },
      "getBnuTokenAddress()": {
        "details": "Get BNU token address"
      },
      "getStakingHistories(address)": {
        "details": "Get staking histories of `account`"
      },
      "getStakingUsers()": {
        "details": "Get list of users who are staking"
      },
      "getTotalStaked()": {
        "details": "Get total BNU token amount staked in contract"
      },
      "getUserEarnedAmount(address)": {
        "details": "Get user's BNU earned It includes stored interest and pending interest"
      },
      "getUserNftTicket(address,uint256,bool)": {
        "details": "Get user ticket slot for receiving NFT"
      },
      "getUserStakedAmount(address)": {
        "details": "Get total BNU token amount staked by `account`"
      },
      "getWithdrawalHistories(address)": {
        "details": "Get withdrawal histories of `account`"
      },
      "setApr(uint256)": {
        "details": "Set APR Before set APR with new value, contract should process to calculate all current users' profit  to reset interest"
      },
      "setBnuTokenAddress(address)": {
        "details": "Set BNU token address"
      },
      "setNftStage(uint256,bool,bool)": {
        "details": "Remove NFT stage from data"
      },
      "stake(uint256)": {
        "details": "See IAvatarArtStaking"
      },
      "stop()": {
        "details": "Stop staking program"
      },
      "withdraw(uint256)": {
        "details": "See IAvatarArtStaking"
      }
    },
    "version": 1
  },
  "userdoc": {
    "kind": "user",
    "methods": {},
    "version": 1
  }
}